:020000040000FA
:040000008BEF1FF073
:103F1600000195EF1FF0ACEC1FF0DCEC1FF0A0ECFD
:103F26001FF012008EEC1FF0050E016E000EBAECAB
:103F36001FF09CEF1FF000EF00F0700E0E01D36F24
:103F4600000ED56F000ED76F020ED96F000ED86F18
:103F56001200000E0E01DC6F000EDD6F000EDE6F2C
:103F6600000EDF6F000EE06F000EE16F1200026EB2
:103F7600000EF2BE010E036E310E7B6E000E7A6EDF
:103F860002C079FF01C07CFF7F8EF29E550E816EC6
:103F9600AA0E816E808880B8D3EF1FF0D5EF1FF090
:103FA600CEEF1FF003B002D0F29E01D0F28E7F9EBC
:103FB6001200000E826E000E836E000E846E8768FD
:103FC600886889680F011C6914690C69000E286FDE
:103FD600000E136F000E0B6F000E1B6F000E0A6FA4
:103FE600000E126F000E1A6F0969116919690869C6
:0A3FF60010691869080E256F12000B
:020000040020DA
:10000000FFFFFFFFFFFFFFFFFFFFFFFFFFFFFFFF00
:10001000FFFFFFFFFFFFFFFFFFFFFFFFFFFFFFFFF0
:10002000FFFFFFFFFFFFFFFFFFFFFFFFFFFFFFFFE0
:10003000FFFFFFFFFFFFFFFFFFFFFFFFFFFFFFFFD0
:10004000FFFFFFFFFFFFFFFFFFFFFFFFFFFFFFFFC0
:10005000FFFFFFFFFFFFFFFFFFFFFFFFFFFFFFFFB0
:10006000FFFFFFFFFFFFFFFFFFFFFFFFFFFFFFFFA0
:10007000FFFFFFFFFFFFFFFFFFFFFFFFFFFFFFFF90
:10008000FFFFFFFFFFFFFFFFFFFFFFFFFFFFFFFF80
:10009000FFFFFFFFFFFFFFFFFFFFFFFFFFFFFFFF70
:1000A000FFFFFFFFFFFFFFFFFFFFFFFFFFFFFFFF60
:1000B000FFFFFFFFFFFFFFFFFFFFFFFFFFFFFFFF50
:1000C000FFFFFFFFFFFFFFFFFFFFFFFFFFFFFFFF40
:1000D000FFFFFFFFFFFFFFFFFFFFFFFFFFFFFFFF30
:1000E000FFFFFFFFFFFFFFFFFFFFFFFFFFFFFFFF20
:1000F000FFFFFFFFFFFFFFFFFFFFFFFFFFFFFFFF10
:020000040030CA
:0C000000F9FFFFFF9FFFFFDFFFFFFFFF86
:00000001FF
